:100000000C9446000C9465000C9465000C946500FB
:100010000C9465000C9465000C9465000C946500CC
:100020000C9465000C9465000C9465000C946500BC
:100030000C9465000C9465000C9465000C946500AC
:100040000C9465000C9465000C9465000C9465009C
:100050000C9465000C9465000C9465000C9465008C
:100060000C9465000C9465000C9465000C9465007C
:100070000C9465000C9465000C9465000C9465006C
:100080000C9465000C9465000C94650011241FBE4F
:10009000CFEFD0E1DEBFCDBF11E0A0E0B1E0EEE7F1
:1000A000F2E000E00BBF02C007900D92AA30B1074A
:1000B000D9F721E0AAE0B1E001C01D92AD31B2074D
:1000C000E1F70E94C6000C943D010C94000040B37F
:1000D00020910A0130910B01220F331F306E842FC3
:1000E000817090E0282B392B30930B0120930A016B
:1000F00081E02115304F09F080E0089581111FC083
:1001000060B380910A0190910B01880F991F906E46
:10011000462F417050E0842B952B90930B018093D8
:100120000A0140B3880F991F906E242F217030E090
:10013000822B932B90930B0180930A01F2CF80E0E6
:1001400008958A3030F4E82FF0E0E050FF4F8081CE
:10015000089580E008959C01FB01009771F0ADECDB
:10016000BCEC0E942E019C0136952795369527956B
:10017000369527952115310591F71186108617823E
:1001800016821382128211821082089580EF87BB3B
:1001900018BAE0E0F0E00FEFC1E0D0E014E28FE346
:1001A0009FE10197F1F700C000001ABA0BBB1BBA20
:1001B00089B390E00E941401E80FF91FEF3F93E02C
:1001C000F90779F1309779F09F01ADECBCEC0E9412
:1001D0002E019C01369527953695279536952795BE
:1001E0002115310591F70ABB1BBA18BA24E030E09B
:1001F00088B3AE01022E01C0440F0A94EAF7842BA3
:1002000088BB1BBB4FEF83ED90E341508040904093
:10021000E1F700C000002F5F3F4F2830310541F764
:10022000BECFE0E0F0E0DFCF0E941E018F93892F68
:100230000E941E0199270F90800D0895082E81704D
:1002400006940694811D0694811D0694811D0694D2
:10025000811D0694811D0694801D0895A29FB00102
:10026000B39FC001A39F700D811D1124911DB29FEA
:0E027000700D811D1124911D0895F894FFCF8B
:0A027E00029E240C9848401E000860
:00000001FF
