:100000000C9446000C9458000C9458000C94580022
:100010000C9458000C9458000C9458000C94580000
:100020000C9458000C9458000C9458000C945800F0
:100030000C9458000C9458000C9458000C945800E0
:100040000C9458000C9458000C9458000C945800D0
:100050000C9458000C9458000C9458000C945800C0
:100060000C9458000C9458000C9458000C945800B0
:100070000C9458000C9458000C9458000C945800A0
:100080000C9458000C9458000C94580011241FBE76
:10009000CFEFD0E1DEBFCDBF21E0A0E0B1E001C0F5
:1000A0001D92A230B207E1F70E9483000C94BF00BA
:1000B0000C94000040B32091000130910101220F07
:1000C000331F306E842F817090E0282B392B3093B2
:1000D00001012093000181E02115304F09F080E0FB
:1000E00008952DEC829F212D112426952695269585
:1000F0003AE0239F8019112490E030E1239F800D86
:10010000911D112408958FEF87BB41E050E07DECF5
:1001100006C083EF91E00197F1F700C0000060B3E3
:100120008091000190910101880F991F906E262FF8
:10013000217030E0822B932B90930101809300017A
:100140008115904F31F7479F612D11246695669573
:100150006695842F9AE0699F8019112490E0E0E170
:100160006E9F800D911D11244F5F5F4F44365105E6
:1001700011F088BBCECF40E050E088BBCACFF894E6
:02018000FFCFAF
:00000001FF
